{
    "txid": "3f253a140c417f5b5436d27292e906e7b2e9486a4b127b29ac847f2e863c6dfc",
    "version": 1,
    "locktime": 0,
    "vin": [
        {
            "txid": "5897de6bd6027a475eadd57019d4e6872c396d0716c4875a5f1a6fcfdf385c1f",
            "vout": 0,
            "scriptSig": {
                "asm": "",
                "hex": ""
            },
            "sequence": 4294967295
        },
        {
            "txid": "bf829c6bcf84579331337659d31f89dfd138f7f7785802d5501c92333145ca7c",
            "vout": 18,
            "scriptSig": {
                "asm": "",
                "hex": ""
            },
            "sequence": 4294967295
        },
        {
            "txid": "22a6f904655d53ae2ff70e701a0bbd90aa3975c0f40bfc6cc996a9049e31cdfc",
            "vout": 1,
            "scriptSig": {
                "asm": "",
                "hex": ""
            },
            "sequence": 4294967295
        }
    ],
    "vout": [
        {
            "value": 0.18,
            "n": 0,
            "scriptPubKey": {
                "asm": "OP_DUP OP_HASH160 8bbc0611596fcedf645b16cbf086ae4a944b49bd OP_EQUALVERIFY OP_CHECKSIG",
                "hex": "76a9148bbc0611596fcedf645b16cbf086ae4a944b49bd88ac",
                "reqSigs": 1,
                "type": "pubkeyhash",
                "addresses": [
                    "BgXXmc1P8nAG6DWCFActMBQTySfgGB2pZr"
                ]
            }
        },
        {
            "value": 4.00,
            "n": 1,
            "scriptPubKey": {
                "asm": "OP_DUP OP_HASH160 442a40661ef2758c478e6e82a95fa420ab7be364 OP_EQUALVERIFY OP_CHECKSIG",
                "hex": "76a914442a40661ef2758c478e6e82a95fa420ab7be36488ac",
                "reqSigs": 1,
                "type": "pubkeyhash",
                "addresses": [
                    "Ba17AZLLvu569s5Wk2cMV7ByE9NhD3BTAe"
                ]
            }
        }
    ],
    "hex": "01000000031f5c38dfcf6f1a5f5a87c416076d392c87e6d41970d5ad5e477a02d66bde97580000000000ffffffff7cca453133921c50d5025878f7f738d1df891fd359763331935784cf6b9c82bf1200000000fffffffffccd319e04a996c96cfc0bf4c07539aa90bd0b1a700ef72fae535d6504f9a6220100000000ffffffff0280a81201000000001976a9148bbc0611596fcedf645b16cbf086ae4a944b49bd88ac0084d717000000001976a914442a40661ef2758c478e6e82a95fa420ab7be36488ac00000000"
}
